:020000040800F2
:100000009034002001010008D9190008C11500082A
:10001000D519000831130008852A000800000000E7
:10002000000000000000000000000000E5200008C3
:100030002D14000800000000E51E0008F92100084A
:100040001B0100081B0100081B0100081B01000820
:100050001B0100081B0100081B0100081B01000810
:100060001B0100081B0100081B0100081B01000800
:100070001B0100081B0100081B0100081B010008F0
:100080001B0100081B0100081B0100081B010008E0
:100090001B0100081B0100081B0100081B010008D0
:1000A0001B0100081B0100081B0100081B010008C0
:1000B000092400089D240008E52500081B0100080C
:1000C0001B0100081B0100081B0100081B010008A0
:1000D0001B0100081B0100081B0100081B01000890
:1000E0001B0100081B0100081B010008DFF80CD0F1
:1000F00000F094FF004800472935000890340020A4
:100100000648804706480047FEE7FEE7FEE7FEE7B1
:10011000FEE7FEE7FEE7FEE7FEE7FEE75D220008FA
:10012000ED0000082DE9F04F4FF0000C4FF00003F8
:1001300001EB1C6EBEF90250BEF900400EF5807E48
:10014000BEF90290BEF900800EF5807EBEF9027005
:10015000BEF900600EF5807EBEF902B0BEF900A0C7
:100160000EF5807ED044D944A8EB4A0AA9EB4B0B8C
:100170004FEAA4044FEAA50504EBA60405EBA70586
:10018000A4EB6606A5EB670704EBA80405EBA9053D
:10019000A4EB6808A5EB690906EBAB06A7EBAA0779
:1001A000A6EB6B0B07EB6A0A458020F8044B4780EF
:1001B00020F8046BA0F8029020F8048BA0F802A0AD
:1001C00020F804BB03F1010393FAA3FC402BAFD149
:1001D000A0EB82014FF0100312090FF2361000F16C
:1001E000000006B403EB430C6144A2F5803202EB3D
:1001F0008332B1F90250B1F90040A1EB0301B0F92B
:1002000002B0B0F900A000F10400A5EB040E0EFB53
:100210000BFC0AEB4B0E05FB0ACB04FB0ECAB1F933
:100220000250B1F90040A1EB0301B0F90290B0F91E
:10023000008000F10400A5EB040E0EFB09FC08EBA6
:10024000490E05FB08C904FB0EC8B1F90250B1F90B
:100250000040A1EB0301B0F90270B0F9006000F1B9
:100260000400A5EB040E0EFB07FC06EB470E05FB96
:1002700006C704FB0EC6B1F90250B1F9004001F106
:100280000001D044D944A8EB4A0AA9EB4B0B4FEA32
:10029000A4044FEAA50504EB264405EB2745A4EB8F
:1002A000E636A5EBE73704EB284405EB2945A4EB3C
:1002B000E838A5EBE93906EB2B46A7EB2A47A6EB76
:1002C000EB3B07EBEA3A4D800C8019444F800E80DF
:1002D0001944A1F80290A1F800801944A1F802A0E5
:1002E00021F804BBB2F5803283DA03EB430C61449E
:1002F000A2F101025FEA024E18BFA0EB0C007FF4EE
:1003000076AF06BC4FEA830392087FF46AAFBDE87C
:10031000F08F0040000000400000004000005DDD64
:10032000213BA3227E180000412D7EA5412D000017
:10033000412D00C000405DDD82E75DDD213B7EA5F3
:10034000412D004000000040000000400000AA2AAB
:1003500094126B39460649327C0CA8118E2349321F
:100360007C0CA3227E1821F77931AA2A9412A811B5
:100370008E235DDD213BA3227E180000412D95C612
:10038000B13F461A2B1E58EE3735BEB4C53EA811F4
:100390008E235DDD213B63A97138DF089A28B7CD34
:1003A000C53E7EA5412D0000412D00C0004063A93F
:1003B0002B1E21F77931BEB4C53EBEB47C0C58EE7D
:1003C000373561AC213B95C6BAF9BAE571383BA720
:1003D00037355DDD82E75DDD213B7EA5412D21F7CF
:1003E00066D756D53F3D3BA78E23A811C9CAB7CDC6
:1003F000C53E61AC7E18AA2AC1C295C6B13FBEB443
:100400007C0C0040000000400000004000001E3B4B
:10041000B504693E9201C83C2403EB356409C83C2D
:1004200024036B3946066C30060E1E3BB504EB35D3
:100430006409AA2A94126B39460649327C0CAE2410
:100440000917AF37D607882E8D0F7E1E5D1BEB3543
:100450006409AA2A941224188C1F1E34F10AB326A8
:100460009015A8118E2349327C0CA3227E18140B00
:1004700060276C30060E7E1E5D1B7104FB2A882EE1
:100480008D0F461A2B1EC7FD5A2E9D2C1211FE15DC
:10049000E72021F77931AA2A9412A8118E2387F038
:1004A0005334B2281314480D202602EAE536B32649
:1004B0009015DF089A289CE32B39AE2409177104A4
:1004C000FB2A5DDD213BA3227E180000412D4ED783
:1004D000C53C9320EF198FFB6C2F78D1153E7E1E03
:1004E0005D1B21F77931E2CB0F3F641CC61CB8F2CB
:1004F000683395C6B13F461A2B1E58EE373597C163
:10050000FB3F24188C1F02EAE536F0BCEC3FFE15D9
:10051000E720BAE57138A6B8853FD5133D2282E1C0
:10052000DB39BEB4C53EA8118E235DDD213B40B151
:10053000AF3D790FDA244DD9423C2EAE423C480DF6
:10054000202656D53F3D8EAB823A140B602778D1DA
:10055000153E63A97138DF089A28B7CDC53EB1A70B
:100560001236A906CE2915CA4F3F78A66833710402
:10057000FB2A95C6B13FBCA576303902212C38C381
:10058000EC3F7EA5412D0000412D00C00040BCA5E0
:10059000CE29C7FD5A2EF0BCEC3F78A620268FFB53
:1005A0006C2F09BAB13FB1A73D2257F976304DB74C
:1005B0004F3F63A92B1E21F77931BEB4C53E8EABE8
:1005C000EF19ECF474325EB2153E2EAE9015B8F20F
:1005D00068332DB03F3D40B1121187F053342EAE39
:1005E000423CBEB47C0C58EE373561AC213BA6B81A
:1005F000D6072BEC1236C8AADB39F0BC240302EA7A
:10060000E53663A9713897C16EFEDCE7B03734A8D0
:10061000E53695C6BAF9BAE571383BA73735E2CB6E
:100620000FF59CE32B3978A6683378D173F082E11B
:10063000DB39EDA579314ED7EDEB6DDF823A99A527
:100640006C2F5DDD82E75DDD213B7EA5412D9CE3C6
:100650003AE352DBB63B99A5FB2A02EA19DF4DD9F2
:10066000423CEDA59A2887F026DB4ED7C53C78A6FC
:10067000202621F766D756D53F3D3BA78E23C7FDE1
:10068000DFD363D3AF3D34A8E720710494D078D191
:10069000153E63A92B1E140B8CCD94CF723EC8AAB5
:1006A0005D1BA811C9CAB7CDC53E61AC7E18241820
:1006B00050C8E2CB0F3F2EAE90157E1E25C615CA40
:1006C0004F3F2DB09412AE244AC451C8853F5EB24C
:1006D0008D0FAA2AC1C295C6B13FBEB47C0C6C3046
:1006E0008EC1E2C4D43F4DB76409EB35B1C038C305
:1006F000EC3F09BA46061E3B2CC097C1FB3FF0BC3D
:100700002403D2B201E000F8012B491EFBD270474E
:100710000022F6E710B513460A4604461946FFF7CD
:10072000F0FF204610BDF0B480EA0102D40F420071
:10073000B2EB410F02D20246084611464A0042D0AF
:10074000C30DDDB2C1F3C752AD1A202D35DAC1F3A6
:10075000160141F4000204B15242C5F1200602FA2A
:1007600006F12A411044B3EBD05F23D0C4B1012D70
:10077000A0EBC35009DCF0BC4FF0004202EAC352C8
:10078000DBB200F5000000F03CBB400000F18070DF
:1007900000EBC350A0F1807040EAD170490009E03D
:1007A000490841EAC071A0EBC35000F500004008C1
:1007B00000EBC350F0BC00F01BBB6142012202EB16
:1007C0004101001BF6E7F0BC704781F00041AAE749
:1007D00080F00040A7E780EA010210B502F0004374
:1007E000400022D04A001FD0010E01EB1261C0F37D
:1007F0005600C2F3560240F4000042F40002A0FB8F
:10080000022000047F39140400D0401C50EA12403A
:1008100001D44000491EC2B20C0604EBD010401CAB
:100820004008802A02D003E0002010BD20F0010023
:10083000002900DA0020184310BD30B480EA01021C
:1008400002F0004530F0004221F0004013D090B19A
:10085000C30DD40DC2F31601C0F31600E41A41F41F
:10086000000140F400027D34914201D3641C00E099
:100870004900002C02DA30BC002070474FF4000021
:100880000023914201D3891A034340084FEA4101F2
:10089000F7D151B1914202D14FF0004105E002D2AF
:1008A0004FF0010101E06FF0010103EBC450284457
:1008B00030BC00F09DBA2DE9FE4F804681EA03006E
:1008C000C00F0C46009021F0004123F00045B8EB2A
:1008D0000200A94105D24046214690461C460B46DF
:1008E000024623F00040104347D0270DC7F30A000B
:1008F000C3F30A510290401A019040286BDAC3F307
:10090000130040F4801B0098924620B10023D2EBE4
:10091000030A63EB0B0B01985946C0F140025046A5
:1009200000F035FA06460D4650465946019A00F049
:100930004DFA10EB08006141002487EA115284EA65
:10094000E7731A4340D0009A62B3019A012A4FEA32
:10095000075215DC001B61EB02014FF0004202EA76
:100960000752CDE90042001C41F5801132462B466A
:1009700000F084FA03B0BDE8F08F40462146F9E765
:10098000001B61EB0201001C41F5801300185B4164
:100990002018A2F5001747EB030140EAD570B619FD
:1009A0006D4111E06D084FEA360645EAC0754FEA21
:1009B0000752001B61EB0201001C41F58011490840
:1009C0004FEA30000019514132462B4603B0BDE8D2
:1009D000F04F00F044BA0098012240000023D0EB11
:1009E000020263EBE073009821464FEAE074B8EB33
:1009F000000061EB0401E9E783F000435BE781F06D
:100A0000004158E72DE9FE4F81EA030404F0004459
:100A100021F0004100944FF0000B23F0004350EA16
:100A200001045ED052EA03045BD0C3F30A54C1F35D
:100A30000A552C44A4F2F3340194A0FB0254C1F3F0
:100A4000130141F48011C3F3130343F4801301FB3A
:100A5000024400FB034E840A970A44EA815447EAA1
:100A60008357A4FB076802958D0A05FB07854FEAAB
:100A7000932C04FB0C542705029D4FEA065847EAC5
:100A80001637B5EB08056EEB070C870E920E47EA9A
:100A9000811742EA8312A7FB0201B6EB0B0164EB5C
:100AA00000042B0D43EA0C335E1844EB1C50DA466D
:100AB0005146E7FB0201C5F313044FEA0B3343EA47
:100AC00014534FEA0432019C43EA0603A4F10C04D8
:100AD0000294009CCDE900B400F0D0F903B0BDE869
:100AE000F08F00200146F9E72DE9F04D81EA03047B
:100AF00004F0004B21F0004514464FF0000A23F0AB
:100B0000004150EA050220D054EA01021DD0C5F38D
:100B10000A570246C5F31303C1F31300C1F30A5683
:100B200040F4801543F48013A7EB0608101BD6464B
:100B300008F2FD3873EB050002D308F1010801E06B
:100B400092185B41B8F1000F03DA00200146BDE8BE
:100B5000F08D00204FF48011064684460EE0171BEE
:100B600073EB050705D3121B63EB050306434CEA41
:100B7000010C49084FEA300092185B4150EA010726
:100B8000EDD152EA030012D082EA040083EA0501A3
:100B9000084305D0101BAB4106D20122002306E01A
:100BA00000224FF0004302E06FF0010253101AEBF5
:100BB00006004CEB085110EB0A0041EB0B01BDE8BD
:100BC000F04D00F04CB9C10F80EAE0700844CA074C
:100BD0009623002100F015B996230022114600F05B
:100BE00010B90EB5C10F80EAE0700844CA070021B1
:100BF00040F233438DE80E000A460B4600F03EF902
:100C000003B000BD0EB540F2334102910021CDE9A1
:100C100000110A460B4600F031F903B000BD20F088
:100C20000040C10DC0F3160040F400007F2901DA36
:100C300000207047962903DCC1F19601C840704737
:100C4000963988407047C1F30A5210B5C1F31301B9
:100C500040F2FF3341F480119A4201DA002010BDC6
:100C600040F233439A42A2F2334203DC524200F094
:100C70009DF810BD904010BD00F0004230F00040E3
:100C80000AD0C10D01F56071C0F3160042EA0151AE
:100C9000C20840071143704700200146704701F029
:100CA000004330B421F0004150EA010206D00A0DA1
:100CB000A2F56072C1F31301002A02DC30BC0020EF
:100CC0007047440F44EAC104C100E01830BC00EB97
:100CD000C25000F08DB80000002801DBC0F10040D8
:100CE000002901DBC1F1004181427047002801DB8E
:100CF000C0F10040002901DBC1F10041884270478A
:100D000030B50B46014600202022012409E021FADB
:100D100002F59D4205D303FA02F5491B04FA02F5D8
:100D20002844151EA2F10102F1DC30BD2DE9F05F6F
:100D30000546002092469B4688460646814640244A
:100D40001BE0284641464746224600F02FF853460E
:100D50005A46C01A914110D311461846224600F057
:100D600016F82D1A67EB01084F4622460120002194
:100D700000F00DF817EB00094E41201EA4F101040C
:100D8000DFDC484631462A464346BDE8F09F202A2C
:100D900004DB203A00FA02F1002070479140C2F1D2
:100DA000200320FA03F3194390407047202A04DB04
:100DB000203A21FA02F00021704721FA02F3D040D4
:100DC000C2F120029140084319467047202A06DBF1
:100DD000CB17203A41FA02F043EAE07306E041FA09
:100DE00002F3D040C2F120029140084319467047F7
:100DF0000029A8BF7047401C490008BF20F001002F
:100E0000704710B4B0FA80FC00FA0CF050EA01040C
:100E100004BF10BC704749B1CCF1200421FA04F49E
:100E200011FA0CF118BF012121430843A3EB0C0177
:100E3000CB1D4FEA00614FEA102042BF002010BCDA
:100E4000704700EBC35010440029A4BF10BC70478A
:100E5000401C490008BF20F0010010BC704710B5CD
:100E6000141E73F1000408DA401C41F100019218CD
:100E70005B411A4301D120F0010010BD2DE9F04D76
:100E800092469B4611B1B1FA81F202E0B0FA80F2CB
:100E900020329046FFF77BFF04460F4640EA0A00E7
:100EA00041EA0B0153465A46084313D0114653EA10
:100EB000010019D0C8F140025046FFF777FF054600
:100EC0000E46504659464246FFF761FF084305D09B
:100ED000012004E020463946BDE8F08D002005439E
:100EE00046EAE0762C4337430A986305E40AA0EB10
:100EF00008000022FD0A44EA47540A3002D50020C7
:100F00000146E9E7010510196941DDE908450019C5
:100F10006941BDE8F04DA2E72DE9F04D00231A46E6
:100F20001B1A8A4103DB00200146BDE8F08DC1F3A6
:100F30000A52C1F3130141F480154FF0000BD107A1
:100F400002D100186D41521E0027044640F2FF11E5
:100F5000384601EB620A3E468046024600204FF4C6
:100F60008011FFF723FFC2197141BB1846EB010046
:100F7000B4EB030C75EB000C04D3E41A65EB00052D
:100F800017460E46241908F101006D4180463428A9
:100F9000E3DDF91946EB0600091BA84103D24FF027
:100FA000FF32134601E0002213461BEB070046EB1D
:100FB0000A51BDE8F04DFFF752BFC1F30A52C1F329
:100FC000130140F2FF3341F480119A4202DA00200B
:100FD0000146704740F233439A42A2F2334202DCA8
:100FE0005242FFF7E3BEFFF7D2BE000030B5041E49
:100FF00071F1000404DB4FF00044404264EB010156
:10100000141E73F1000405DB1C464FF000435242EE
:1010100063EB0403994208BF904230BD064C074D74
:1010200006E0E06840F0010394E8070098471034B8
:10103000AC42F6D3FFF75EF8C0560008E056000851
:1010400070B58C1810F8015B15F0070301D110F88A
:10105000013B2A1106D110F8012B03E010F8016BB7
:1010600001F8016B5B1EF9D12B0705D40023521E3A
:101070000DD401F8013BFAE710F8013BCB1A921CA2
:1010800003E013F8015B01F8015B521EF9D5A142A0
:10109000D8D3002070BD21B1826842F00102826085
:1010A00003E0826822F001028260704710B50446B6
:1010B0001248844208D10121401500F041FF00216F
:1010C000601500F03DFF17E00D48844208D1012172
:1010D000001500F035FF0021201500F031FF0BE076
:1010E0000848844208D10121C80300F029FF0021EB
:1010F0004FF4004000F024FF10BD00000024014028
:1011000000280140003C0140014600208A6802F0AE
:1011100004020AB1012000E0002070470146C86CBB
:1011200080B270470246002013680B400BB10120CB
:1011300000E000207047014600208A6802F00802A3
:101140000AB1012000E000207047000030B50246DF
:101150000020002350680F4C20400D790C6844EAB1
:1011600005242043506090680B4C2040D1E9025484
:101170002C434D7944EA450420439060D06A20F422
:1011800070000C7C641EE4B2234340EA0350D0623A
:1011900030BD0000FFFEF0FFFDF7F1FFF0B50446A3
:1011A0000D4600200021092D11DDE068A5F10A0699
:1011B00006EB4607072606FA07F18843A5F10A065B
:1011C00006EB460603FA06F10843E0600CE02069EE
:1011D00005EB4507072606FA07F1884305EB4506A8
:1011E00003FA06F108432061072A0FDA606B561EE6
:1011F00006EB86071F2606FA07F18843561E06EB04
:10120000860605FA06F10843606322E00D2A0FDA2C
:10121000206BD61F06EB86071F2606FA07F18843C8
:10122000D61F06EB860605FA06F10843206310E098
:10123000E06AA2F10D0606EB86071F2606FA07F103
:101240008843A2F10D0606EB860605FA06F108436F
:10125000E062F0BD816841F008018160704721B112
:10126000826842F4A002826003E0826822F4A00255
:1012700082607047816841F004018160704700001E
:1012800000B587B001214FF4017000F049FE002045
:101290008DF81B000220ADF8180003208DF81A000D
:1012A00006A9214800F0DAF800208DF81B00042080
:1012B000ADF8180003208DF81A0006A91A4800F0AE
:1012C000CDF84FF4004000F00FFE1848FFF7EEFE97
:1012D00000208DF8090004904FF460200390002056
:1012E000019001208DF8140000208DF8080001A95C
:1012F0000E48FFF72BFF01210C48FFF7CCFE0B48EF
:10130000FFF7A8FF00BF0948FFF715FF0028FAD133
:101310000648FFF7AFFF00BF0448FFF7F5FE0028BF
:10132000FAD107B000BD00000008014000240140D0
:1013300000BFFEE72DE9FC5F2B220021084600F0EC
:10134000C9FC30220221002000F0C4FC2D2204211F
:10135000002000F0BFFC2AA20621002000F0F2FCD1
:1013600028A20621322000F0EDFC27A206213C2015
:1013700000F0E8FC02F0AEF88346FFF72DFC814652
:10138000FFF77AFC06460022204BFFF7ADFB044630
:10139000FFF785FC804642460621442000F0EEFC23
:1013A0001BA20621642000F0CDFC1A4801681A48EF
:1013B0000068FFF70AFA824618495046FFF73DFADF
:1013C0008346FFF759FC80464FF06632144BFFF717
:1013D00019FB06460022134BFFF714FB0022124BA9
:1013E000CDE90001FFF780FB0446FFF758FC824679
:1013F000524606210F2000F0C1FCBDE8FC9F000012
:10140000553A000056000000663A000000408F4048
:101410006B000000C81E0020C41E002000F07F45A5
:1014200066660A4000001440000008407047000053
:1014300038B5044610208DF80300ADF800400320B5
:101440008DF802006946044800F008F82146024879
:1014500000F098F838BD0000000C01402DE9F04183
:10146000024600250026002000230024002791F8D2
:1014700003C00CF00F0591F803C00CF0100CBCF188
:10148000000F03D091F802C04CEA050591F800C0A6
:10149000BCF1000F31D0146800202BE04FF0010C9C
:1014A0000CFA00F3B1F800C00CEA03069E4220D10A
:1014B00083004FF00F0C0CFA03F7BC4305FA03FC52
:1014C0004CEA040491F803C0BCF1280F06D14FF098
:1014D000010C0CFA00FCC2F814C00AE091F803C039
:1014E000BCF1480F05D14FF0010C0CFA00FCC2F81A
:1014F00010C0401C0828D1D31460B1F800C0BCF162
:10150000FF0F34DD546800202EE000F1080C4FF08E
:10151000010808FA0CF3B1F800C00CEA03069E4279
:1015200021D183004FF00F0C0CFA03F7BC4305FAEE
:1015300003FC4CEA040491F803C0BCF1280F05D168
:1015400000F1080C08FA0CF8C2F8148091F803C0F6
:10155000BCF1480F07D100F1080C4FF0010808FA60
:101560000CF8C2F81080401C0828CED35460BDE8A7
:10157000F0810246002093680B400BB1012000E08F
:1015800000207047416170470161704710B5044603
:101590000023012221460948FFF700FE01210748E8
:1015A000FFF75DFE00BF02210448FFF7BBFD0028E6
:1015B000F9D00248FFF7B2FD10BD00000024014041
:1015C00000BFFEE710B5044614B1012010490870B1
:1015D0000F48007888B101210E48FFF7CAFF60B9B3
:1015E0000A2001F02DFF0020094908700121094857
:1015F000FFF7BFFF48B9012010BD01210548FFF7E3
:10160000B8FF012801D1024908700020F4E700006A
:101610002A1C00200008014008B50121102000F01C
:101620007FFC10208DF803004002ADF8000003207D
:101630008DF8020069460448FFF710FF4FF400518F
:101640000148FFF7A1FF08BD0010014010B54FF49D
:101650000070FFF7EDFE4FF48070FFF7E9FE802089
:10166000FFF7E6FE80210248FFF78EFF10BD000065
:10167000000C01402DE9F04F8BB0002463E03448AA
:1016800030F824000FFA80F9314850F824004FEA6E
:10169000204A4846FFF797FA80464FF08741FFF708
:1016A0009AF807464FF08E41FFF7C7F805465046B7
:1016B000FFF789FA80464FF08741FFF78CF807461D
:1016C0004FF08E41FFF7B9F8064631463046FFF736
:1016D00082F8294602902846FFF77DF8019002998A
:1016E000FFF721F80390FFF7C7FA074601F09EFFC6
:1016F0000022184BCDE90401FFF784F90022164BB4
:10170000CDE90601FFF7F0F9CDE90801FFF7C7FAC7
:1017100083465CB94FF08E415846FFF75CF80746A8
:10172000FFF77DFA0D4941F824000AE04FF08F41A0
:101730005846FFF750F80746FFF771FA074941F896
:101740002400601C84B2802C99DB0BB0BDE8F08FC4
:10175000902C00200000F03F00007040902E0020F0
:1017600070B5002400BF27E0184951F82400FFF7A6
:101770002AFA0546164801682846FFF7B7FA06D246
:10178000124951F82400FFF71EFA114908600F4969
:1017900051F82400FFF717FA05460E48016828465D
:1017A000FFF79AFA06D2094951F82400FFF70BFA1D
:1017B00008490860601C84B2FF2CD5DD054801682B
:1017C00003480068FFF701F870BD00008424002082
:1017D000C41E0020C81E00202DE9F0410026002470
:1017E000002500F05DFF00BF1E48008800F00100EA
:1017F0000028F9D101F040F804461B4804604FF47A
:1018000080711A48FFF7C0FE80211848FFF7BAFE22
:10181000FA2001F015FE00F043FF00BF11480088D8
:1018200000F001000028F9D101F026F8054629460C
:101830002046FEF7CAFF804641462846FEF7FDFFD8
:1018400007460B49FEF7C7FF06464FF4807107486D
:10185000FFF798FE80210548FFF796FE3046BDE869
:10186000F081000000080040D01E0020000C014064
:1018700000401C472DE9F05F4FF0000A0024A1460C
:10188000FFF76EFF044633492046FEF7D6FF834636
:10189000FFF7F2F907464FF066322F4BFFF7B2F829
:1018A0000546FFF7FCF904462C4804602046FFF784
:1018B000E3F905462A460B4629A001F01FF94FF42B
:1018C00000712C48FFF760FEFA2001F0B9FD0121FC
:1018D000294800F0F6FE01224121274800F00EFFC2
:1018E0000A2001F0ADFDFFF73BFF8146194948464C
:1018F000FEF7A3FF8346FFF7BFF907464FF06632B6
:10190000154BFFF77FF80546FFF7C9F981464846B2
:10191000FFF7B2F905462A460B4618A001F0EEF88B
:1019200021461B48FEF757FF05464946FEF785FF4F
:1019300082465046FFF7A0F905462A460B4615A0F9
:1019400001F0DCF84FF400710A48FFF71BFE504627
:10195000BDE8F09F00F07F4566660A40D41E002077
:10196000CAE4B3F6B5E7D7E8B5C45531203D202524
:10197000660D0A00000C014000040040CAE4B3F602
:10198000B5E7D7E8B5C45532203D2025660D0A00DD
:1019900000001645CAE4B3F6B5E7D7E8B5C4526F00
:1019A0007574203D2025660D0A00000070B50649BB
:1019B00006480068FEF70FFF05460549FEF73DFFA4
:1019C0000446204670BD000000007A43D41E00206B
:1019D0000000404000BFFEE7704710B54FF4A06024
:1019E00000F03AF810BD000070B5002100230F226E
:1019F000C47804B3154C246804F4E064C4F5E064CE
:101A0000210AC1F10403CA40447804FA03F184783E
:101A10001440214309010E4C0678A155047804F0C6
:101A20001F050124AC4005786D11AD0005F1E025DE
:101A3000C5F8004109E0047804F01F050124AC401A
:101A4000044D0678761145F8264070BD0CED00E097
:101A500000E400E080E100E002490143024A116035
:101A6000704700000000FA050CED00E070B500249E
:101A70000CE0002506E00020074901EBC5010855F0
:101A8000681CC5B2802DF6DB601CC4B2082CF0DBEC
:101A900000F0E2F870BD000070200020F0B51446A0
:101AA00000267F2801DC3F2900DDF0BD0B46CF1763
:101AB00001EB5777FF10C7F10707FAB2CF1701EB19
:101AC0005777FF10A1EBC707FDB2C5F10707012348
:101AD000BB40DEB24CB10A4B03EBC0039B5C33430B
:101AE000074F07EBC007BB5408E0054B03EBC003EF
:101AF0009B5CB343024F07EBC007BB5400BFD4E766
:101B00007020002008B50121082000F009FA4FF2EA
:101B10000200ADF8000010208DF8030003208DF8BE
:101B2000020069464B48FFF799FC4FF20201494811
:101B3000FFF72AFD4FF480414648FFF725FD0A20B4
:101B400001F07EFC4FF480414248FFF71BFD0A2064
:101B500001F076FC4FF480413E48FFF715FD00216F
:101B6000AE2000F081F90021084600F07DF9002147
:101B7000102000F079F90021402000F075F90021D3
:101B8000812000F071F90021CF2000F06DF90021D3
:101B9000A12000F069F90021C82000F065F90021BA
:101BA000A62000F061F90021A82000F05DF90021D5
:101BB0003F2000F059F90021D32000F055F9002111
:101BC000084600F051F90021D52000F04DF9002120
:101BD000802000F049F90021D92000F045F90021CA
:101BE000F12000F041F90021DA2000F03DF9002158
:101BF000122000F039F90021DB2000F035F9002136
:101C0000402000F031F90021202000F02DF90021C2
:101C1000022000F029F900218D2000F025F9002193
:101C2000142000F021F90021A42000F01DF900216A
:101C3000A62000F019F90021AF2000F015F90021CD
:101C4000AF2000F011F9FFF711FF0021084600F066
:101C500029F808BD000C014070B500241CE004F117
:101C6000B001C8B2002100F0FFF80021084600F0E2
:101C7000FBF80021102000F0F7F8002508E00849E3
:101C800001EBC501085D012100F0EEF8681CC5B24A
:101C9000802DF4DB601CC4B2082CE0DB70BD0000BA
:101CA0007020002070B504460D4605F1B001C8B2A1
:101CB000002100F0D9F8102141EA1410002100F0B1
:101CC000D3F804F00F0141F00100002100F0CCF83E
:101CD00070BD00002DE9F04107460E4690460025F4
:101CE0000024A8F12000C5B27F2F02DD0027B01C20
:101CF000C6B231463846FFF7D5FF002408E004EBB2
:101D000005110F4A505C012100F0AEF8601CC4B20E
:101D1000082CF4DB701CC1B23846FFF7C3FF002467
:101D200009E004EB05110831054A505C012100F07F
:101D30009BF8601CC4B2082CF3DBBDE8F081000006
:101D4000103900082DE9F04104460F4615460026DB
:101D50000EE0AA5D39462046FFF7BCFF04F10800FB
:101D6000C4B2782C02DD0024B81CC7B2701CC6B205
:101D7000A85D0028EDD1BDE8F08100002DE9F04715
:101D800086B0804689461746142101A8FEF7C0FC9C
:101D90003846FEF744FF85B2002600243049384615
:101DA000FEF719FD8246FEF73AFF80B20A2190FB4A
:101DB000F1F201FB12003030C2B22146641C01A8CE
:101DC000425428493846FEF706FD8246FEF727FFB3
:101DD00080B20A2190FBF1F201FB12003030C2B256
:101DE0002146641C01A842542E222146641C425400
:101DF00011E00A2095FBF0F100FB11503030C2B227
:101E00002046611C8CB201A90A540A2095FBF0F00F
:101E100085B205B900E0ECE700BF601E84B214E0B3
:101E20003046711C0EB201A90D5C2046611E8CB2B9
:101E300001A9095C701E01AA115401A9601C0D546E
:101E4000B44201D0A01B00D500E0E9E700BF01AA21
:101E500049464046FFF776FF06B0BDE8F087000030
:101E60000000C8420000204170B504460E4626B16D
:101E700002211B48FFF788FB03E002211848FFF707
:101E800081FB4FF480511648FFF77CFB00251BE0D7
:101E90004FF400511248FFF775FB04F0800028B1A1
:101EA0004FF400410E48FFF76FFB04E04FF4004190
:101EB0000B48FFF767FB4FF400510948FFF764FB3D
:101EC0006006040E681CC5B2082DE1DB4FF480519A
:101ED0000348FFF759FB02210148FFF755FB70BD8E
:101EE000000C01407047000001460020034A506882
:101EF00020F440400843506070470000001002404A
:101F000029B1064AD2690243044BDA6104E0034A6C
:101F1000D2698243014BDA61704700000010024031
:101F200029B1064A92690243044B9A6104E0034ACC
:101F300092698243014B9A61704700000010024091
:101F400029B1064AD2680243044BDA6004E0034A2E
:101F5000D2688243014BDA607047000000100240F3
:101F600030B500210022002400232D4D6D6805F0BE
:101F70000C0121B1042905D0082923D105E0294D00
:101F8000056022E0274D05601FE0254D6D6805F4D2
:101F90007012234D6D6805F48034022505EB9242E2
:101FA0001CB9214D554305600BE01D4D6D6805F4CE
:101FB00000351DB11C4D5543056002E0194D5543D8
:101FC000056002E0174D056000BF00BF144D6D684D
:101FD00005F0F0010909154D6B5C0568DD404560B1
:101FE0000F4D6D6805F4E061090A104D6B5C4568A2
:101FF000DD4085600A4D6D6805F46051C90A0B4DDE
:102000006B5C4568DD40C560054D6D6805F4404179
:10201000890B074D6B5CC568B5FBF3F5056130BDF9
:102020000010024000127A0000093D00141C00203C
:10203000241C002010B51EA200210846FFF782FED6
:102040001C48002102683C20FFF798FE1AA20021DC
:102050006420FFF777FE19A202210020FFF772FE2D
:102060001848022102683C20FFF788FE12A20221D4
:102070006420FFF767FE14A204210020FFF762FE30
:102080001248042102683C20FFF778FE10A20621C6
:102090000020FFF757FE0F48062102683C20FFF79B
:1020A0006DFE0DA206216420FFF74CFE10BD00005E
:1020B00052696E00AC1E00204B000000526F757418
:1020C00000000000B01E002041300000B41E0020BF
:1020D00054484400B81E0020250000000048704706
:1020E00084240020704710B500F002F810BD0000F5
:1020F0000CB50020019000903348006840F4803017
:102100003149086000BF3048006800F4003000909A
:102110000198401C0190009818B90198B0F5A06F83
:10212000F1D12948006800F4003010B1012000907E
:1021300001E0002000900098012843D12348006866
:1021400040F01000214908600846006820F00300B4
:1021500008600846006840F0020008601A484068BD
:10216000194948600846406848600846406840F49D
:10217000806048600846406820F47C10486008464B
:10218000406840F4E81048600846006840F08070FD
:10219000086000BF0C48006800F000700028F9D00B
:1021A0000948406820F00300074948600846406835
:1021B00040F00200486000BF0348406800F00C0097
:1021C0000828F9D10CBD0000001002400020024098
:1021D000042808D14FF0E021096941F004014FF0D3
:1021E000E022116107E04FF0E021096921F00401CC
:1021F0004FF0E022116170477047000010B501F008
:10220000FDF8FFF7EAFBFFF707FA4FF4E13000F0C3
:10221000F9FBFFF777FCFFF733F8002140F2776016
:1022200000F00EFA002140F2833000F097F94FF4ED
:10223000B471094800F0CBFA00214FF6FF7000F0AE
:102240009BF801210820FFF76BFEFFF7FFF9FA204A
:1022500001F0F6F810BD00000004004010B513486E
:10226000006840F0010011490860084640681049C4
:1022700008400E494860084600680E4908400B496E
:1022800008600846006820F480200860084640681E
:1022900020F4FE0048604FF41F008860FFF723FF22
:1022A0004FF000600449086010BD000000100240BB
:1022B0000000FFF8FFFFF6FE08ED00E02DE9F04713
:1022C00086B000210C460D464FF0010A33E0274945
:1022D0008869FEF786FC06460F46244951F82A0015
:1022E000FEF77FFC804632463B46FEF7FDFBCDE91C
:1022F00002011E498869FEF774FC06460F461B4919
:1023000051F82A00FEF76DFC804632463B46FEF748
:10231000EBFBCDE90001DDE90223FEF773FB22466A
:102320002B46CDE90401FEF7C6FA04460D460AF134
:1023300001001FFA80FABAF1800FC8DB00220C4BB3
:1023400020462946FEF758FB04460D4620462946FE
:1023500001F06CF904460D460022064B2046294642
:10236000FEF750FB06B0BDE8F0870000902E00207D
:102370000000F03F000059407CB504460D460121A5
:102380000846FFF7BDFD01210420FFF7C9FD082025
:10239000ADF8040028208DF8070001A91948FFF7BF
:1023A0005DF808211748FFF7EFF84FF480708105BA
:1023B0000883002008824FF6FF708885002008857A
:1023C00010200884012008801C208DF800000220C5
:1023D0008DF8010000208DF8020001208DF8030027
:1023E0006846FFF701FB01221121880700F086F9FA
:1023F0001121880700F062F90121880700F061F9D6
:102400007CBD00000008014010B50121880700F0E4
:1024100064F9A0B11D480078022810D01B4840780C
:10242000401C1A4948700121194800F047F9194821
:10243000006808B9012000E000201649086010215A
:10244000880600F04AF9E0B11048007840B9124817
:1024500000880E49486008460078401C087010E06B
:102460000A480078012808D10B480088074988608D
:1024700008460078401C087003E000204FF08041BF
:1024800088811121880700F019F910BD70240020FF
:1024900000040040B40122424000004010B5012178
:1024A000134800F01AF908B30121114800F006F9A9
:1024B0000120FFF76BF80F490F4A128841F82200FC
:1024C0000D480088401C0C49088008460088B0F57B
:1024D000807F0BD10021064800F0F3F80022412153
:1024E000034800F00BF900200349088010BD0000EC
:1024F0000004004084240020C01E00207FB5054653
:102500000C4601210220FFF7FBFCADF80850ADF8A6
:1025100004400020ADF80A00ADF8060001A90E48FD
:1025200000F058F9012241210B4800F0E7F81D2086
:102530008DF8000000208DF8010003208DF80200C6
:1025400001208DF803006846FFF74EFA012102488A
:1025500000F0B7F87FBD00000004004030B589B03E
:1025600005460C4601210220FFF7CAFC0121052087
:10257000FFF7D6FC8020ADF8200018208DF823004E
:1025800003208DF8220008A91448FEF767FFADF874
:102590001850ADF814400020ADF81A00ADF8160040
:1025A00005A90F4800F016F97020ADF804000120CD
:1025B000ADF806000020ADF80A00ADF80C0001A946
:1025C000074800F0A5F80821054800F0F3F80121BC
:1025D000034800F076F809B030BD00000008014063
:1025E0000004004010B50121124800F076F800B355
:1025F0000121104800F062F80220FEF7C7FF0E49E3
:102600000E4A128821F812000C480088401C0B4921
:10261000088008460088C8280BD10021054800F032
:1026200050F800224121034800F068F800200349D7
:10263000088010BD00080040E01E0020281C00207B
:102640007FB505460C4601210420FFF759FCADF883
:102650000850ADF804400020ADF80A00ADF80600BF
:1026600001A90E4800F0B6F8002241210B4800F005
:1026700045F81E208DF8000000208DF80100042090
:102680008DF8020001208DF803006846FFF7ACF9D1
:102690000021024800F015F87FBD0000000800404E
:1026A00010B50121044800F00CF801224121024834
:1026B00000F024F810BD000000080040CA43028268
:1026C000704721B1028842F00102028004E00288D2
:1026D0004FF6FE731A400280704730B50246002064
:1026E00000230024158A05EA0103958905EA0104FF
:1026F00013B10CB1012000E0002030BD1AB1838974
:102700000B43838102E083898B4383817047000000
:1027100070B5002400220023058C4FF6EF7635407B
:102720000584028C8388048B48F6FF752C404FF695
:10273000FF452C400D884FF6FF7606EA05252C4311
:102740004FF6DF752A400D8906EA05152A434D88A4
:1027500006EA05152A43154DA84202D0144DA84299
:102760001DD14FF67F752A404D894FF6FF7606EA58
:1027700005152A434FF6BF752A408D8806EA0515D0
:102780002A434FF6FF352B404FF2FF752B408D89C2
:1027900006EA85052B43CD8906EA85052B43838010
:1027A0000483CD880587028470BD0000002C0140A1
:1027B000003401400A460021018B4FF2FF7319409B
:1027C0004FF6FF7303EA0223194301837047018721
:1027D00070470000002202881D4B98420ED01D4B0E
:1027E00098420BD0B0F1804F08D01B4B984205D0D7
:1027F0001A4B984202D01A4B984204D14FF68F736D
:102800001A404B881A43174B984207D0164B9842F0
:1028100004D04FF6FF431A40CB881A4302808B88BE
:1028200083850B8803850A4B98420BD0094B98424D
:1028300008D00E4B984205D00D4B984202D00D4B5C
:10284000984201D10B7A03860123838270470000EE
:10285000002C01400034014000040040000800400A
:10286000000C0040001000400014004000400140F7
:1028700000440140004801402DE9FC5F0020019028
:102880000024814640F6FF7A00BF11E0154830F879
:102890001400484502DD134830F81490114830F810
:1028A0001400504502DA0F4830F814A0601C84B2BE
:1028B000C82CEBDBA9EB0A00FEF785F90A4900906A
:1028C000FDF7BBFF8346FEF7D7F907464FF06632A8
:1028D000064BFEF797F80546FEF7E1F901900198DF
:1028E000BDE8FC9FE01E002000F07F4566660A40C0
:1028F00021B1828942F40052828104E082894DF63E
:10290000FF731A408281704702460020B1F5007FB4
:1029100000D100BF13880B400BB1012000E0002064
:10292000704700002DE9F04786B005460E460024AA
:10293000A24600BFA1460027B08900B100BF2F46C4
:102940002C8A4CF6FF700440F08804432C82AC893A
:102950004EF6F3100440B08831890843718908436A
:102960000443AC81AC8A4FF6FF400440B089044375
:10297000AC8201A8FFF7F4FA1F48874202D1DDF8C4
:1029800010A001E0DDF80CA0A88900F4004040B1DF
:102990000AEBCA0000EB0A1031684900B0FBF1F8FD
:1029A00007E00AEBCA0000EB0A1031688900B0FBAF
:1029B000F1F86420B8FBF0F004012009642101FB68
:1029C0001089A88900F4004040B1322000EBC90012
:1029D000B0FBF1F000F00700044308E0322000EB08
:1029E00009106421B0FBF1F000F00F0004432C81CA
:1029F00006B0BDE8F087000000380140C1F30802CE
:102A00008280704710B586B00446012144F204006C
:102A1000FFF786FA4FF40070ADF8140018208DF817
:102A2000170003208DF8160005A91448FEF716FDBF
:102A30004FF48060ADF8140004208DF817000320D7
:102A40008DF8160005A90D48FEF708FD0C20ADF81D
:102A50000E000020ADF80C000194ADF80A00ADF8AE
:102A60000800ADF8100001A90548FFF75BFF012140
:102A70000348FFF73DFF06B010BD0000000801400D
:102A80000038014000BFFEE72DE9F05F0024FFF7AA
:102A900025FB814600BF25E059F82400FEF793F896
:102AA0008346FEF7E9F807464FF06632104BFDF714
:102AB000A9FF0546FEF7F3F882460E495046FDF79A
:102AC0008AFE82460C495046FDF72DFE0646FEF76B
:102AD000A6F8C5B204F11001C8B201222946FEF7DA
:102AE000DDFF641C602CD7DBFFF7B6F8BDE8F09F74
:102AF00066664A3F000040410000B8410FB4054BF4
:102B000010B503A9044A029800F0E0F810BC5DF883
:102B100014FB0000B1340008D81E002002E008C8F1
:102B2000121F08C1002AFAD170477047002001E047
:102B300001C1121F002AFBD1704700000149086043
:102B400070470000DC1E00202DE9FF5F82B00021ED
:102B5000DDE90430020DDDF840B0034318D044F63F
:102B60001050A2F2FF3242431514119801281FD0D1
:102B7000A5EB0B00401C5FEA000A4FF000064E4F29
:102B8000DFF83891B046504615D5CAF1000413E07D
:102B9000119801244AA3012801D16FEA0B01029880
:102BA000119AC0E90031C0E9024206B0BDE8F09FC9
:102BB000CBF10000DFE704460021404A491842EB10
:102BC0000450CDE9001012E0E00707D032463B4642
:102BD00040464946FDF716FF8046894632463B4649
:102BE00010461946FDF70EFF06460F466410002CEE
:102BF000EAD1DDE90401DDE90023BAF1000F06DACC
:102C0000FDF700FF42464B46FDF7FCFE05E0FDF7F1
:102C10006BFF42464B46FDF767FF04460E46002217
:102C2000284BFEF7E3F903D84FF0FF30014607E0E9
:102C30000022254B20463146FDF73DFEFEF7BDF94B
:102C4000102409E0002C0ADB0A220023FEF76EF8AC
:102C5000039B30321A55641E50EA0102F2D1641C03
:102C6000039AC4F111031444119A012A03D00122DA
:102C700008430DD10AE0084304D000204FF0110BA7
:102C8000119072E7A3EB0B056D1E0DE05B4504DDB3
:102C90004FF0000205F1010504E003DA4FF00002F5
:102CA000A5F10105002AECD002981199C0E9023182
:102CB000C0E9004579E70000000014400000F03F43
:102CC000300000000000F0430000E03F2DE9FF4F1E
:102CD00095B09B468946064600250FE2252877D108
:102CE00000242746F84A0121059400E0044316F821
:102CF000013F203B01FA03F01042F7D130782A2837
:102D000011D06FF02F033078A0F13002092A16D8C5
:102D1000059A44F0020402EB820203EB42021044E3
:102D2000761C0590EFE759F8042B0592002A03DA88
:102D3000504244F40054059044F00204761C30786C
:102D40002E2816D116F8010F44F004042A280DD0BD
:102D50006FF02F023078A0F13003092B09D807EB70
:102D6000870302EB4303C718761CF3E759F8047B8B
:102D7000761C30786C280FD006DC4C2817D06828D9
:102D80000DD06A2814D104E0742810D07A280FD10D
:102D90000DE044F400140AE044F4801401E044F42B
:102DA00040147278824202D104F58014761C761C9D
:102DB000307866280BD013DC582877D009DC00283F
:102DC00075D04528F6D04628F4D047281AD19DE181
:102DD00018E0632835D0642879D0652812D195E1B0
:102DE000702873D008DC6728F1D069286FD06E286E
:102DF0000DD06F2806D1B5E073282CD0752875D07A
:102E0000782874D05A46179990476D1C75E1C4F321
:102E10000250022809D003280DD0D9F80010042848
:102E20000DD00D6009F1040967E1D9F80010EA1727
:102E3000C1E90052F6E7D9F800100D80F2E70D70F5
:102E4000F0E719F8041B8DF8001000208DF8010040
:102E5000EA46012003E059F804AB4FF0FF30610768
:102E60004FF0000102D40DE008F101018846B9429B
:102E70000FDA8045F8DB1AF808100029F4D108E0D1
:102E800008F1010188468142FADB1AF8081000298E
:102E9000F6D105985B46A0EB080721463846179AFD
:102EA00000F094FA284400EB080507E04DE029E122
:102EB0000DE01AF8010B5A4617999047B8F101082E
:102EC000F7D25B4621463846179A13E142E00A22C0
:102ED0000092C4F302524FF0000A022A08D059F8B7
:102EE00004CB032A4FEAEC710AD00DE029E02AE076
:102EF00009F1070121F00702F2E802C1914609E059
:102F00000FFA8CFC4FEAEC71042A03D14FFA8CFCC7
:102F10004FEAEC71002907DA0A460021DCF1000CC7
:102F200061EB02012D2202E0220504D52B228DF84F
:102F30000420012203E0E20701D02022F7E79046B7
:102F400059E00A2102E010220DE010214FF0000AA2
:102F500000910BE010224FF0000A44F0040408270F
:102F6000009203E008224FF0000A0092C4F30252DC
:102F7000022A05D059F804CB0021032A08D009E021
:102F800009F1070121F00702F2E802C1914605E0CC
:102F90001FFA8CFC042A01D10CF0FF0C4FF0000842
:102FA000220728D5702806D0009B83F0100353EA2F
:102FB0000A0305D00EE040228DF80420012208E02B
:102FC0005CEA010206D030228DF804208DF805005D
:102FD00002229046009B83F0080353EA0A030AD1B9
:102FE0005CEA010201D1620705D530228DF8042088
:102FF0004FF001087F1E582804D034A003900EA87B
:1030000002900DE036A0F9E753466046009AFDF7BE
:103010008DFE84460398825C0298401E02900270E6
:103020005CEA0100F0D1029806A9081A00F1200A12
:10303000600702D524F4803400E00127574502DD03
:10304000A7EB0A0000E0002000EB0A0100900598C1
:103050004144401A0590E00306D45B462146179A86
:10306000059800F0B3F90544002706E001A85A4688
:10307000C05D179990476D1C7F1C4745F6DBE00348
:103080000CD55B462146179A059800F09FF9054438
:1030900004E030205A46179990476D1C0099481E4D
:1030A00000900029F5DC08E0029802995A46007861
:1030B000491C0291179990476D1CBAF10001AAF1C1
:1030C000010AF1DC65E100000928010030313233EA
:1030D0003435363738396162636465660000000054
:1030E000303132333435363738394142434445463E
:1030F0000000000000F058F90544761C30780028E4
:103100007FF4ECAD19B02846BDE8F08F620700D41B
:10311000062709F1070222F0070CFCE80223E1462A
:1031200003F000485FEA080C02D00FF2702C0DE0AB
:103130005FEA045C02D50FF2682C07E05FEAC47C0A
:1031400002D00FF2602C01E0AFF2700C4FF0FF38AC
:1031500023F00043CDF850C065280CD006DC45288C
:1031600009D046281DD047283DD13DE0662818D01B
:1031700067287ED138E00021112F01DB112000E00B
:10318000781CCDE9000106A90EA8FFF7DDFCDDE9FA
:103190000F010E9A03910021009207F1010A049198
:1031A0004DE04FF000400097CDE9011006A90EA8B0
:1031B000FFF7CAFCDDE90F0203920E9B1199002272
:1031C000DDF80CA00093049211B9791C00EB010A00
:1031D000B7EB0A0004D4C0F1FF3007F1010A0490F4
:1031E000AAEB0700019044E0012F00DA012700213B
:1031F000112F01DD112000E03846CDE9000106A9BC
:103200000EA8FFF7A1FCDDE90F010E9A0391002142
:1032100004910092BA4621070CD40399514500DA73
:103220008A46BAF1010F05DD009AAAF10101515C4D
:10323000302908D0B84202DA10F1040F06DA012171
:10324000CDE9011015E0AAF10101E9E7002805DC4C
:10325000049901440491AAEB000102E0411C51458C
:1032600000DD8A460499401A401C01904FF000404E
:103270000290200704D40198504501DBCDF804806A
:1032800000208DF84F0002980DF14F07B0F1004F6C
:1032900025D02B200E9002984FF0020800280CDA5F
:1032A000404202902D200E9007E00A210298FDF77F
:1032B00027FD3031029007F8011DB8F10001A8F197
:1032C0000108F2DC02980028EFD1791E0E980870F0
:1032D000307800F0200040F0450007F8020D12A8F9
:1032E000C01B00F107081498007800B1012000EB22
:1032F0000A01019801EBE07105984144401A401E13
:103300000590E00306D45B462146179A059800F025
:103310005DF805441498007818B15A4617999047FB
:103320006D1CE00324D55B462146179A059800F0F2
:103330004DF805441CE00498002807DBDDE9030193
:10334000884203DD0098405C179901E0179930200E
:103350005A469047049805F10105401C04900198D5
:10336000401E019004D12E205A46179990476D1C9B
:10337000BAF10001AAF1010ADDDC05E017F8010B42
:103380005A46179990476D1CB8F10001A8F1010841
:10339000F4DC5B462146179A0598ABE62D00000049
:1033A0002B000000200000002DE9F041044600251C
:1033B0001E461746880404D405E039462020B0474D
:1033C0006D1C641EF9D52846BDE8F0812DE9F04159
:1033D000044600251E469046C80301D5302700E06C
:1033E0002027880404D505E041463846B0476D1CC7
:1033F000641EF9D52846BDE8F081000010B56FF0D5
:103400000400FEF7E5FE0A4800680A49B0FBF1F047
:10341000094908700846007800EB4001C1EBC01074
:103420004FF6FF7101EAC0000449088010BD00009A
:10343000001C002000127A00BC1E0020BE1E0020CE
:10344000014600224FF0E0231A610E4A12884A43D7
:103450005A6100229A611A46126942F001021A6109
:1034600000BF4FF0E022106900F001021AB100F431
:103470008032002AF5D000224FF0E0231A619A61D1
:1034800070470000BE1E002010B50446204600F024
:1034900003F8FEF7EFF810BD10B504464FF4807244
:1034A00021460248FCF73EFE10BD0000902C002093
:1034B00070B504460D46E1B20548FFF79FFA00BF1C
:1034C00080210348FFF720FA0028F9D0204670BD7C
:1034D000003801402DE9F04700244FF00109012494
:1034E0000AE00F4850F824000D4951F8291088428D
:1034F00000DBA146601CC4B27F2CF2DB09F10100A5
:1035000000F0FF094846FDF77DFB07460022054B0A
:10351000FDF778FA0546FDF796FB80B2BDE8F08727
:10352000902E00200088634000250024FEF766FEF0
:103530004FF400511648FEF725F800F02DF86420EE
:10354000FFF77EFF1348FFF79FFF00F095F800F0AC
:103550003DF8FFF799FAFDF7EDFE18E01420FFF7AC
:103560006FFF0020FEF72EF80546012D0FD12CB974
:10357000FEF77CFAFEF75EFD012408E0012C06D17F
:10358000FEF774FAFFF780FAFDF7D4FE0024E5E7B2
:1035900000100140001800202DE9F041094D0A49B2
:1035A0002846FDF718F907464FF07E51FDF70DF953
:1035B0000646FDF734FB84B200212046FEF79EFF4D
:1035C000BDE8F0810000B8410000904270B5FEF700
:1035D00075FE0446FDF763FB0F490860FEF7FCF833
:1035E00004460E49FDF729F90D4908603220FFF71E
:1035F00027FFFEF73FF904460849FDF71EF9094980
:1036000008603220FFF71CFFFEF7D0F9064908607A
:103610003220FFF715FF70BDB81E002000007A446D
:10362000AC1E0020B01E0020B41E00202DE9F04189
:1036300006460F46FDF770FC041E0D4618BF01201C
:10364000284320F00040C0F17F6000F1E040C00F4F
:103650000ED0301C18BF0120384320F00040C0F1CC
:103660007F6000F1E040C00F04BF0120FFF766FA61
:1036700020462946BDE8F0812DE9F05F4FF0000AB1
:10368000D34600BF20E0134951F82A00FDF7A9FAFC
:1036900080464FF06632104BFDF7B4F90646002223
:1036A0000E4BFDF721FA0446FDF7F9FA834658461A
:1036B000FDF7E2FA044622460B4609A0FFF71EFA80
:1036C0000AF101001FFA80FABAF1800FDBDBBDE8D6
:1036D000F09F0000902E002066660A400000B04077
:1036E00025660D0A00000000000000000000000038
:1036F000002F000000000700070000147F147F1453
:1037000000242A7F2A1200626408132300364955D8
:10371000225000000503000000001C2241000000B0
:1037200041221C000014083E08140008083E080846
:10373000000000A0600000080808080800006060A1
:103740000000002010080402003E5149453E0000E0
:10375000427F4000004261514946002141454B31C2
:10376000001814127F10002745454539003C4A498E
:103770004930000171090503003649494936000600
:103780004949291E00003636000000005636000068
:1037900000081422410000141414141400004122E3
:1037A000140800020151090600324959513E007CBB
:1037B0001211127C007F49494936003E41414122A5
:1037C000007F4141221C007F49494941007F09098E
:1037D0000901003E4149497A007F0808087F00003E
:1037E000417F4100002040413F01007F08142241F9
:1037F000007F40404040007F020C027F007F0408B1
:10380000107F003E4141413E007F09090906003E0C
:103810004151215E007F0919294600464949493135
:103820000001017F0101003F4040403F001F204058
:10383000201F003F4038403F006314081463000716
:103840000870080700615149454300007F4141006D
:1038500000552A552A55000041417F00000402010D
:1038600002040040404040400000010204000020EB
:1038700054545478007F4844443800384444442029
:1038800000384444487F00385454541800087E09D6
:1038900001020018A4A4A47C007F0804047800009E
:1038A000447D4000004080847D00007F102844005B
:1038B0000000417F4000007C04180478007C08046C
:1038C000047800384444443800FC242424180018A8
:1038D000242418FC007C0804040800485454542094
:1038E00000043F444020003C4040207C001C20401D
:1038F000201C003C4030403C004428102844001C60
:10390000A0A0A07C004464544C4414141414141457
:1039100000000000000000000000000000000000A7
:10392000000000F80000000000000033300000003C
:1039300000100C06100C0600000000000000000043
:1039400040C07840C0784000043F04043F040400B5
:10395000007088FC08300000001820FF211E0000C5
:10396000F008F000E018000000211C031E211E00DA
:1039700000F00888700000001E2123241927211060
:1039800010160E0000000000000000000000000003
:10399000000000E0180402000000000718204000AA
:1039A00000020418E000000000402018070000009A
:1039B000404080F0804040000202010F01020200FE
:1039C000000000F0000000000101011F01010100E2
:1039D000000000000000000080B070000000000047
:1039E00000000000000000000001010101010101D0
:1039F0000000000000000000003030000000000067
:103A0000000000008060180400601806010000003B
:103A100000E010080810E000000F102020100F0038
:103A2000001010F8000000000020203F20200000BF
:103A30000070080808887000003028242221300017
:103A400000300888884830000018202020110E001F
:103A50000000C02010F8000000070424243F2400C8
:103A600000F80888880808000019212020110E009D
:103A700000E0108888180000000F112020110E00AF
:103A800000380808C83808000000003F00000000A7
:103A90000070880808887000001C222121221C0068
:103AA00000E010080810E0000000312222110F0091
:103AB000000000C0C0000000000000303000000026
:103AC0000000008000000000000080600000000096
:103AD00000008040201008000001020408102000AF
:103AE00040404040404040000404040404040400FA
:103AF000000810204080000000201008040201008F
:103B0000007048080808F00000000030360100008E
:103B1000C030C828E810E0000718272423140B0041
:103B20000000C038E0000000203C230202273820BB
:103B300008F8888888700000203F202020110E009F
:103B4000C030080808083800071820202010080096
:103B500008F808080810E000203F202020100F007F
:103B600008F88888E8081000203F2020232018004B
:103B700008F88888E8081000203F200003000000B3
:103B8000C03008080838000007182020221E020054
:103B900008F808000008F808203F210101213F2013
:103BA000000808F8080800000020203F202000003E
:103BB00000000808F8080800C08080807F0000002E
:103BC00008F888C028180800203F20012638200067
:103BD00008F8080000000000203F202020203000CE
:103BE00008F8F800F8F80800203F003F003F2000E8
:103BF00008F830C00008F808203F200007183F00F0
:103C0000E01008080810E0000F10202020100F001E
:103C100008F808080808F000203F21010101000011
:103C2000E01008080810E0000F18242438504F0056
:103C300008F8888888887000203F2000030C302016
:103C400000708808080838000038202121221C0054
:103C5000180808F8080818000000203F200000009D
:103C600008F808000008F808001F202020201F0086
:103C70000878880000C83808000007380E010000E6
:103C8000F80800F80008F800033C0700073C0300B0
:103C9000081868808068180820302C03032C302016
:103CA0000838C800C83808000000203F2000000085
:103CB00010080808C83808002038262120201800DD
:103CC000000000FE020202000000007F40404000B1
:103CD000000C30C000000000000000010638C000E9
:103CE00000020202FE000000004040407F00000091
:103CF00000000402020204000000000000000000B6
:103D000000000000000000008080808080808080B3
:103D1000000202040000000000000000000000009B
:103D200000008080808000000019242222223F2091
:103D300008F8008080000000003F112020110E00D4
:103D40000000008080800000000E11202020110063
:103D5000000000808088F800000E112020103F2015
:103D60000000808080800000001F22222222130099
:103D7000008080F0888888180020203F20200000E4
:103D80000000808080808000006B94949493600099
:103D900008F8008080800000203F210000203F20A4
:103DA00000809898000000000020203F20200000A4
:103DB000000000809898000000C08080807F000094
:103DC00008F8000080808000203F24022D30200071
:103DD000000808F8000000000020203F202000001C
:103DE0008080808080808000203F20003F20003F36
:103DF0008080008080800000203F210000203F2044
:103E00000000808080800000001F202020201F00F4
:103E1000808000808000000080FFA12020110E0023
:103E20000000008080808000000E112020A0FF8014
:103E3000808080008080800020203F2120000100C1
:103E40000000808080808000003324242424190016
:103E5000008080E0808000000000001F2020000023
:103E60008080000000808000001F202020103F2064
:103E7000808080000080808000010E3008060100F4
:103E800080800080008080800F300C030C300F0099
:103E900000808000808080000020312E0E312000C4
:103EA000808080000080808080818E7018060100F4
:103EB00000808080808080000021302C2221300012
:103EC00000000000807C020200000000003F404033
:103ED00000000000FF00000000000000FF000000E4
:103EE0000002027C800000000040403F0000000013
:103EF00000060101020204040000000000000000AE
:103F000000000000000000000000000000000000B1
:103F10003F40000000000000000030004000300082
:103F20004000000009000BC03D000BC03D0009002F
:103F300018C024407FE0224031800000180024C0D7
:103F40001B000D803240018003801C4027401C80F4
:103F5000074000401000600000000000000000006A
:103F60000000000000001F80204040200000402092
:103F700020401F8000000000090006001F8006008E
:103F800009000000040004003F8004000400000059
:103F900000100060000000000000000004000400A9
:103FA00004000400040000000000004000000000C5
:103FB00000000000002001C00600380040000000A2
:103FC0001F802040204020401F8000000000104043
:103FD0003FC000400000000018C0214022402440A3
:103FE0001840000010802040244024401B80000026
:103FF00002000D0011003FC0014000003C80244041
:1040000024402440238000001F802440244034406A
:10401000038000003000200027C03800200000008E
:104020001B802440244024401B8000001C0022C030
:10403000224022401F8000000000000008400000D5
:10404000000000000000000004600000000000000C
:10405000000004000A00110020804040090009000F
:104060000900090009000000000040402080110004
:104070000A0004001800200023402400180000005B
:104080001F802040274029401F400000004007C0FB
:1040900039000F0001C0004020403FC024402440B0
:1040A0001B8000001F802040204020403080000006
:1040B00020403FC0204020401F80000020403FC0E3
:1040C00024402E4030C0000020403FC024402E003D
:1040D000300000000F00108020402240338002009A
:1040E00020403FC0040004003FC02040204020404A
:1040F0003FC02040204000000060202020203FC022
:104100002000200020403FC024400B0030C0204051
:1041100020403FC020400040004000C03FC03C0065
:1041200003C03C003FC0000020403FC00C402300C3
:104130003FC020001F802040204020401F80000002
:1041400020403FC024402400180000001F80214070
:10415000214020E01FA0000020403FC02440260056
:1041600019C0004018C02440244022403180000083
:10417000300020403FC020403000000020003F8041
:10418000004000403F80200020003E0001C00700AA
:1041900038002000380007C03C0007C0380000008D
:1041A000204039C0060039C02040000020003840BF
:1041B00007C0384020000000304021C02640384071
:1041C00020C00000000000007FE0402040200000F0
:1041D000000070000C000380004000000000402040
:1041E00040207FE000000000000020004000200090
:1041F000000000000010001000100010001000105F
:1042000000000000400000000000000000000280EC
:104210000540054003C0004020003FC0044004406A
:1042200003800000000003800440044006400000BA
:1042300000000380044024403FC000400000038091
:104240000540054003400000000004401FC024401A
:1042500024402000000002E00550055006500420D4
:1042600020403FC00440040003C000400000044060
:1042700027C000400000000000100010041027E0DC
:104280000000000020403FC00140070004C004407F
:10429000204020403FC000400040000007C0040014
:1042A00007C0040003C00000044007C0044004002D
:1042B00003C000400000038004400440038000006D
:1042C000041007F004500440038000000000038045
:1042D0000440045007F00010044007C002400400EE
:1042E00004000000000006400540054004C0000036
:1042F000000004001F80044000400000040007800C
:104300000040044007C000400400070004C00180D2
:1043100006000400060001C0070001C006000000FE
:10432000044006C0010006C004400000041007104D
:1043300004E00180060004000000044005C00640BF
:10434000044000000000000004007BE0402000006A
:10435000000000000000FFF000000000000040200E
:104360007BE00400000000004000800040002000CE
:1043700020004000000000000000000000000000DD
:10438000000000000000000000001FCC000C000036
:10439000000000000000080030006000080030004D
:1043A00060000000022003FC1E20022003FC1E20EF
:1043B0000220000000000E1811043FFF10840C784A
:1043C000000000000F0010840F3800C00778188428
:1043D0000078000000780F8410C411240E9800E4C7
:1043E0000084000808006800700000000000000061
:1043F0000000000000000000000007E01818200482
:1044000040020000000040022004181807E00000ED
:10441000000000000240024001800FF001800240D5
:10442000024000000080008000800FF800800080C3
:10443000008000000001000D000E000000000000E0
:1044400000000000000000800080008000800080EC
:10445000008000800000000C000C00000000000044
:104460000000000000000006001800600180060047
:1044700018002000000007F00808100410040808C5
:1044800007F000000000080408041FFC00040004FA
:104490000000000000000E0C1014102410441184C1
:1044A0000E0C000000000C181004110411041288F6
:1044B0000C700000000000E00320042408241FFC0E
:1044C0000024000000001F981084110411041088BB
:1044D00010700000000007F008881104110418880B
:1044E0000070000000001C00100010FC13001C00F5
:1044F0001000000000000E38114410841084114494
:104500000E38000000000700088C10441044088892
:1045100007F00000000000000000030C030C000086
:104520000000000000000000000101060000000083
:104530000000000000000080014002200410080874
:10454000100400000220022002200220022002208B
:10455000022000000000100408080410022001409E
:104560000080000000000E001200100C106C108083
:104570000F00000003E00C1813E4142417C40828EB
:1045800007D000000004003C03C41C40074000E4C6
:10459000001C000410041FFC1104110411040E88F7
:1045A0000070000003E00C18100410041004100840
:1045B0001C10000010041FFC100410041004080854
:1045C00007F0000010041FFC1104110417C41004AC
:1045D0000818000010041FFC1104110017C010007F
:1045E0000800000003E00C181004100410441C78AC
:1045F0000040000010041FFC108400800080108424
:104600001FFC10040000100410041FFC1004100410
:104610000000000000030001100110011FFE100047
:104620001000000010041FFC110403801464181C07
:104630001004000010041FFC100400040004000417
:10464000000C000010041FFC1F0000FC1F001FFCDA
:104650001004000010041FFC0C04030000E01018FC
:104660001FFC100007F008081004100410040808CC
:1046700007F0000010041FFC1084108010801080D0
:104680000F00000007F0081810241024101C080A5E
:1046900007F2000010041FFC1104110011C01130BA
:1046A0000E0C000400000E1C110410841084104431
:1046B0001C3800001800100010041FFC100410002B
:1046C0001800000010001FF810040004000410047B
:1046D0001FF8100010001E0011E0001C0070138075
:1046E0001C0010001FC0103C00E01F0000E0103C48
:1046F0001FC000001004180C163401C001C016348D
:10470000180C100410001C00130400FC13041C00FF
:10471000100000000804101C1064108413041C0412
:10472000101800000000000000007FFE4002400260
:1047300040020000000030000C0003800060001CFC
:104740000003000000004002400240027FFE000023
:104750000000000000000000200040004000400079
:104760002000000000010001000100010001000123
:104770000001000100004000400020000000000097
:10478000000000000000009801240144014401449D
:1047900000FC000410001FFC0088010401040088D4
:1047A0000070000000000070008801040104010492
:1047B0000088000000000070008801040104110856
:1047C0001FFC0004000000F80144014401440144BE
:1047D00000C800000000010401040FFC11041104D2
:1047E00011001800000000D601290129012901C982
:1047F0000106000010041FFC0084010001000104F8
:1048000000FC000400000104190419FC0004000469
:10481000000000000000000300010101190119FE61
:104820000000000010041FFC0024004001B4010C33
:10483000010400000000100410041FFC0004000428
:1048400000000000010401FC0104010001FC01045E
:10485000010000FC010401FC0084010001000104CE
:1048600000FC0004000000F801040104010401043C
:1048700000F80000010101FF008501040104008827
:1048800000700000000000700088010401040105B0
:1048900001FF00010104010401FC00840104010086
:1048A00001800000000000CC012401240124012427
:1048B0000198000000000100010007F80104010454
:1048C00000000000010001F80004000400040108D9
:1048D00001FC0004010001800170000C0010016067
:1048E0000180010001F0010C003001C00030010C1A
:1048F00001F0010000000104018C00740170018CC2
:1049000001040000010101810171000E0018016025
:104910000180010000000184010C01340144018484
:10492000010C0000000000000000000001003EFC3F
:10493000400240020000000000000000FFFF0000F5
:10494000000000000000400240023EFC01000000A8
:104950000000000000006000800080004000400077
:104960002000200000000000000000000000000007
:104970000000000000000000000000000000000037
:104980000000000000000000000000000000000027
:10499000000000000000000F80380FFE380F803844
:1049A0000000000000000000000000000000000007
:1049B00000000100000600000C000038000031007B
:1049C000000600000C00003800003000000000006D
:1049D0000000000061800067F807F9800061800036
:1049E00061800061800061800067F807F9800061E4
:1049F0008000000000000000000001C0E003E0F0C3
:104A00000630080418081FFFFE040E080787F0038D
:104A100081E000000000000001F000060C0004042A
:104A200008060C7001F9C0000E00003BE000EC1815
:104A3000070808040C180003E00000000001E00073
:104A400007F003F818041C0804170807E1D003C096
:104A5000E00023B0003C0800200800001000000027
:104A60000000000100003100003200001C000000C6
:104A70000000000000000000000000000000000036
:104A80000000000000000000000000000000000026
:104A9000000000007F0001FFC00780F00C0018102C
:104AA00000042000020000000000002000021000AE
:104AB000040C00180780F001FFC0007F0000000018
:104AC00000000000000000000000000000000000E6
:104AD0004200006600006600003C0000180003FF72
:104AE000C0001800003C00006600006600004200A4
:104AF0000000000008000008000008000008000096
:104B0000080001FFC00008000008000008000008BD
:104B10000000080000000000000100003100003229
:104B200000001C0000000000000000000000000069
:104B30000000000000000000000000000800000865
:104B4000000008000008000008000008000008003D
:104B5000000800000800000800000000000000003D
:104B6000000000003800003800003800000000009D
:104B70000000000000000000000000000000000035
:104B800000000000000600001C0000700001800012
:104B90000E0000380000C0000700001C00003000BC
:104BA00000000000000000007F8001FFE003807033
:104BB00006001804000804000806001803807001AD
:104BC000FFE0007F80000000000000000000010006
:104BD0000801000801000803FFF807FFF8000008BB
:104BE00000000800000800000000000000000001B4
:104BF000C03802C0580400980401180402180404C4
:104C000018061C1803F81801E0F800000000000066
:104C100000000001C0E003C0F0040008040808041C
:104C2000080806180803F41801E7F00001E0000086
:104C300000000000000000000300000D0000110053
:104C400000610000810803010807FFF80FFFF8006A
:104C500001080001080000000000000000E007FC5F
:104C6000D0060808061008061008061008061838AE
:104C7000060FF00607C00000000000000000000062
:104C80003F8001FFE003843002081804100804107C
:104C900008041008071810030FF00007C0000000F8
:104CA00000000000000003C000070000060000062E
:104CB00000F80607F806180006E0000700000600E6
:104CC0000000000000000001E1E003F7F0063410EE
:104CD000041808041808040C08040C080616180325
:104CE000F3F001C1E000000000000000F80003FC48
:104CF0003003063804020804020804020804041001
:104D00000308F001FFC0007F000000000000000069
:104D1000000000000000000000000000703800707B
:104D200038007038000000000000000000000000A3
:104D30000000000000000000000000000000000073
:104D4000301A00301C0000000000000000000000CD
:104D50000000000000000000000000080000140037
:104D60000022000041000080800100400200200479
:104D700000100800080000000000000021000021D1
:104D8000000021000021000021000021000021007E
:104D900000210000210000210000000000000000B0
:104DA00000000800080400100200200100400080FC
:104DB00080004100002200001400000800000000F4
:104DC00000000003C00004C0000400000800380810
:104DD0000F380808380810000C300007E00003C046
:104DE00000000000000000003F8000FFE003807032
:104DF000020F1006708804C088048308047F8802AC
:104E0000C09003012000FE400000080000180001CF
:104E1000F8003E0801C20007020007E20000FE00A1
:104E2000001FC80001F8000038000008040008074F
:104E3000FFF807FFF8040808040808040808040835
:104E40000806180803F41801E7F00001E00000006C
:104E5000000000003F8001FFE003807002001804A2
:104E60000008040008040008040010060020078061
:104E7000C000000004000807FFF807FFF80400085E
:104E800004000804000804001802001003807001E8
:104E9000FFE0007F8000000004000807FFF807FF24
:104EA000F8040808040808040808040808043E0870
:104EB0000400080600180100600000000400080754
:104EC000FFF807FFF80408080408000408000408B5
:104ED00000043E0006000006000001800000000003
:104EE000000000003F8001FFE0038070060018040E
:104EF00000080402080402080203F00783F000021D
:104F00000000020004000807FFF807FFF804080883
:104F10000008000008000008000008000408080756
:104F2000FFF807FFF804000800000000000004007C
:104F30000804000804000807FFF807FFF804000849
:104F40000400080400080000000000000000000049
:104F50000006000007000001040001040001040035
:104F60000307FFFE07FFFC0400000400000400002C
:104F700004000807FFF807FFF8040C0800180000F9
:104F80003E0004C7800503C80600F804003804008A
:104F90001800000804000807FFF807FFF8040008DD
:104FA00000000800000800000800000800000800D9
:104FB000001800006000000004000807FFF80780E8
:104FC0000807FC00007FC00003F80007C00078005D
:104FD00007800807FFF807FFF80400080400080727
:104FE000FFF807000803C00000E000003800001EC2
:104FF000000007000001C00400F007FFF8040000F3
:10500000000000007F8001FFE003807006001804AC
:10501000000804000806001803003001FFE0007FCC
:105020008000000004000807FFF807FFF8040408E8
:10503000040400040400040400040400060C00033B
:10504000F80001F000000000000000007F8001FF78
:10505000E00380700600880400880400C806003C55
:1050600003003E01FFE6007F840000000400080703
:10507000FFF807FFF8040808040800040C00040FF8
:1050800000040BC00610F003F03801E0080000082F
:1050900000000001E0F803F03006301004180804A6
:1050A0001808040C08040C080206180207F007810F
:1050B000E000000001800006000004000004000081
:1050C00004000807FFF807FFF804000804000004C4
:1050D000000006000001800004000007FFE007FF59
:1050E000F004001800000800000800000800000894
:1050F00000000804001007FFE004000004000006A0
:10510000000007E00007FE00041FE00001F80000B7
:10511000380001E0043E0007C00006000004000063
:1051200004000007E00007FFC0041FF80007C007E5
:10513000F80007FF80043FF80007C004F8000700EC
:105140000004000000000004000806001807C078F2
:1051500005F1C8003E00001F800463E80780F806E0
:10516000001804000800000004000006000007808A
:105170000007E008047C08001FF80007F800180882
:1051800004E0080700000600000400000000000121
:1051900000080600380400F80403E8040F08047C43
:1051A0000805F00807C008070018040060000000A8
:1051B0000000000000000000000000000000003FB0
:1051C000FFFE20000220000220000220000220003A
:1051D00002000000000000000000080000070000BE
:1051E00000C0000038000006000001C000003000D0
:1051F000000E000001000000000000000000200080
:10520000022000022000022000022000023FFFFED8
:10521000000000000000000000000000000000008E
:105220000000000000080000100000300000200016
:105230000030000010000008000000000000000026
:105240000000010000010000010000010000010059
:105250000001000001000001000001000001000049
:10526000010000010000000000000000002000001C
:1052700020000010000010000000000000000000EE
:1052800000000000000000000000000000F0001915
:10529000F8001B180022080026080024080024102B
:1052A000003FF8001FF8000008000018000000048C
:1052B000000007FFF80FFFF000181800100800208A
:1052C00008002008003018001FF0000FC000000088
:1052D0000000000007C0001FF00018300020080088
:1052E0002008002008003C08001C1000006000009E
:1052F000000000000000000007C0001FF000381888
:1053000000200800200800200804101007FFF80FF4
:10531000FFF0000010000000000000000000000787
:10532000C0001FF0001230002218002208002208DE
:10533000003208001E10000E2000000000000000D7
:10534000200000200800200801FFF803FFF80620D5
:1053500008042008042008072000030000000000C3
:1053600000000000000E000E6E001FF30031B100BF
:1053700020B10020B1003191001F13002E1E00202B
:105380000E00300000000004000807FFF80FFFF8CF
:10539000001008002000002000002008003FF80056
:1053A0001FF80000080000000000000000000020BE
:1053B00008002008002008063FF8063FF800000813
:1053C00000000800000800000000000000000000CD
:1053D0000000000003000003002001002001002065
:1053E00003063FFE063FFC00000000000000000036
:1053F00000000004000807FFF80FFFF80001880014
:105400000300002FC00038F80020380020080000FA
:10541000080000000000000000000400080400086C
:1054200004000807FFF80FFFF8000008000008005C
:105430000008000000000000002008003FF8003FC6
:10544000F8001008002000003FF8003FF8001008A6
:10545000002000003FF8003FF800000800000000B6
:105460002008003FF8003FF800100800100000205E
:1054700000002008003FF8001FF8000008000000AE
:105480000000000007C0000FF000183000300800D6
:105490002008002008003008001830000FF0000736
:1054A000C0000000000000002001003FFF003FFF9F
:1054B00000101100200900200800200800303800EA
:1054C0001FF0000FC00000000000000007C0001F18
:1054D000F0003818002008002008002009001011F2
:1054E000001FFF003FFF0000010000000020080037
:1054F0002008002008003FF8003FF80008080010CE
:1055000008002008002000003000003000000000EB
:10551000000000000000000C78001E180033080096
:1055200023080021080021880021980030F000386D
:1055300060000000000000002000002000002000AB
:1055400000FFF003FFF800200800200800200800FA
:105550000030000000000000000000002000003FBC
:10556000F0007FF80000180000080000080020107C
:10557000003FF8007FF00000100000000000000075
:105580002000003000003C00003F800023F00000BD
:1055900078000070002380003C00003000002000F4
:1055A000002000003C00003FE00023F80000E00085
:1055B0002700003E00003FE00021F80001E0003E2F
:1055C00000002000000000002008002008003838FB
:1055D000003E680027800003C8002CF8003838001F
:1055E000201800200800000000000000200000300B
:1055F00003003C01003F830023EC00007000238087
:10560000003C00002000002000000000000000001E
:1056100000000038080020380020F80023E8002FA0
:1056200088003E08003808002018000070000000C4
:10563000000000000000000000000000000000006A
:1056400008000014001FF7FC3000062000020000D4
:10565000000000000000000000000000000000004A
:10566000000000000000FFFFFF000000000000003D
:10567000000000000000000000000000000020000A
:10568000023000061FF7FC001400000800000000B4
:1056900000000000000000000000000000000018F2
:1056A00000006000004000004000002000001000EA
:1056B000000800000400000400000C0000100000BE
:1056C000E056000800000020E01E00004010000826
:1056D00010610008E01E0020B01500002C2B00080F
:1056E00011100A03050911FF118905C312E012F018
:1056F00072F8073D4428FF11AA44700B8301384417
:1057000082929274018328087C44FF017D7D7D0490
:105710004905647D01FF9A0102818A010B01366906
:10572000419949FA0101011D38083F3F0303F31372
:1057300011011E01F1116181312D816111F1393B9E
:105740004141072C01C1211EAB21C1143901393659
:105750000738D33303033F3F23E0E06A7FA81A7F73
:10576000BF4C0618060A213640407F40401C1F20CF
:105770004001AB201F14113A600E6C300C0346013F
:10578000361C070706017809040404844444448451
:10579000071C0484C405790E09110A7911294003F4
:1057A0004107072610181412112E0F1010100F0F9A
:1057B000331F1026081012120D22186B0D120A59F1
:1057C00029590701605A8001013D20087F030C30F0
:1057D0000C037F2538545458257C04047805223C5A
:1057E00040407C17FFAAAAAA28080A2CFF681E2698
:1057F00049494932101D020408100F100A03050917
:1058000011FF118905C312E012F072F8073D442818
:10581000FF11AA44700B8301384482929274018371
:105820001E7C44FF017D01990559BB9A0102818AC2
:10583000010B013669419949FA010101204BF80831
:10584000011135F818608035806018F82B2020068B
:10585000312BE0101EAB10E014613937043E88682C
:10586000186A7FA71A7FBE4C0618060A11464040E8
:105870007F40401C1F204001AB201F141162603A82
:10588000602F01441E40202020C0ED190729EA2A7C
:105890004005115A600E8918792959070149260CCB
:1058A0000A0A090C360F0808080F2C080F08151DE6
:1058B0000809090E0719181C09090918190A592994
:1058C000590701605A8001013D20087F030C300C0C
:1058D000037F2538545458257C04047805223C4025
:1058E000407C17FFAAAAAA28080A2CFF681E26498E
:1058F000494932101D020408100FD9D35CC0E0F0F2
:1059000001092117C129221DF8F8F8FC049EF8F0BE
:10591000E0C0803A29172AFC19991801141808FCCC
:10592000FEFFFFFF7F3F052901910A14FE17B97D95
:105930004AFC1D5E3F1F0F0F1F2932F85AF80C1941
:1059400017B91801163507070301E9690915172961
:10595000E9290141591C491D990D091618011D0914
:105960001527E91719D339010976804BE0F0014179
:105970000A717F804B1F3F01410A710780D14A3F66
:105980001D1BFCF801490B337F0F4B0F7F0D2917AF
:105990005AFC180220074A0F01092517811C010330
:1059A000071E1A1F018F0F0F070703011719182968
:1059B000174918011416C0C0C080801B80800819C8
:1059C0000A215909B913390A1913691DB913490A6A
:1059D00031390A7913290909170AD9BE3C07070783
:1059E000B329B039BD3A0113390AB913490A391339
:1059F0005D018080010A191C7C03070E0A29091920
:105A0000015913C90A4A0F0A013A29C3000F421C5F
:105A10003EBCC0E0E0EFEFE0E0C0B83E3E00101D4D
:105A2000FEFCFC8C8C8CACECEC8C9C9C9CFCFC9F61
:105A30000707CFF8FEFF0157FEF8CF0F0707100B3F
:105A4000C0F0F878383838F8F0C06C80E0F00B110E
:105A500017E0F03838F0E01A80B419011BC0C0C25A
:105A6000E11946200DBBFBFBF9FFFFFBFBBB3BFF36
:105A7000FF193A3E3838181818084901697EAC07F2
:105A8000071F7E29013D3F06070F812407070316E4
:105A900080E0F87F1F200B87CFFFFC787078FFDF56
:105AA0008F1B01033636FDFF3F0301E601010707A7
:105AB00006180980FFFF07383F3F31011B3F3F8D2C
:105AC000011D1A0F6B4814C3E7EF1F3F3FBFBF3FD5
:105AD0003F1FCFEFC301070F0F0E496016E0F0FC28
